{
  "transactions": [
    {
      "hash": "0x3a9f5440a558c0683f88cdc6c983de6695b39bdea02961109b2122323c305296",
      "transactionType": "CALL",
      "contractName": null,
      "contractAddress": "0x97b954474c220f58cb99a56d7d9a70368cb4e900",
      "function": "claimRewards(bytes32[],uint256[],bytes32[][])",
      "arguments": [
        "[0xca2b0b2555f0f84fc9c69108c5826b7c39218d7ed5e8e48b6e8878eb6414989b, 0xbf5ba66290156f54038eb13527bf55440034534088751eaea4a4767a22c64739]",
        "[1000000000000000000, 2000000000000000000]",
        "[[0x9bebbc29752164a035362025edd187a745784f7bfbc0baf383d3f7e07ac40751], [0xe21238696dba01453dcc077ff5d859fb45d50c6963b78d9212fc605b03369b8d]]"
      ],
      "transaction": {
        "from": "0xb20332fb753496be0c64a3e9b71812101dc42774",
        "to": "0x97b954474c220f58cb99a56d7d9a70368cb4e900",
        "gas": "0x20327",
        "value": "0x0",
        "input": "0x7e066c49000000000000000000000000000000000000000000000000000000000000006000000000000000000000000000000000000000000000000000000000000000c000000000000000000000000000000000000000000000000000000000000001200000000000000000000000000000000000000000000000000000000000000002ca2b0b2555f0f84fc9c69108c5826b7c39218d7ed5e8e48b6e8878eb6414989bbf5ba66290156f54038eb13527bf55440034534088751eaea4a4767a22c6473900000000000000000000000000000000000000000000000000000000000000020000000000000000000000000000000000000000000000000de0b6b3a76400000000000000000000000000000000000000000000000000001bc16d674ec8000000000000000000000000000000000000000000000000000000000000000000020000000000000000000000000000000000000000000000000000000000000040000000000000000000000000000000000000000000000000000000000000008000000000000000000000000000000000000000000000000000000000000000019bebbc29752164a035362025edd187a745784f7bfbc0baf383d3f7e07ac407510000000000000000000000000000000000000000000000000000000000000001e21238696dba01453dcc077ff5d859fb45d50c6963b78d9212fc605b03369b8d",
        "nonce": "0x18",
        "chainId": "0x4268"
      },
      "additionalContracts": [],
      "isFixedGasLimit": false
    }
  ],
  "receipts": [
    {
      "status": "0x1",
      "cumulativeGasUsed": "0x46ab01",
      "logs": [
        {
          "address": "0x97b954474c220f58cb99a56d7d9a70368cb4e900",
          "topics": [
            "0xefa5695d2936625de27912f4bff6e51e5e1f89e4c427c175b2d0d5f97ddcaa23",
            "0xca2b0b2555f0f84fc9c69108c5826b7c39218d7ed5e8e48b6e8878eb6414989b",
            "0x0000000000000000000000000000000000000000000000000de0b6b3a7640000"
          ],
          "data": "0x",
          "blockHash": "0xb7d6b4116699f2020c24332835195405a3efd560730c12508fb72c3a4995a767",
          "blockNumber": "0x3a61c9",
          "transactionHash": "0x3a9f5440a558c0683f88cdc6c983de6695b39bdea02961109b2122323c305296",
          "transactionIndex": "0x12",
          "logIndex": "0x27",
          "removed": false
        },
        {
          "address": "0x97b954474c220f58cb99a56d7d9a70368cb4e900",
          "topics": [
            "0xefa5695d2936625de27912f4bff6e51e5e1f89e4c427c175b2d0d5f97ddcaa23",
            "0xbf5ba66290156f54038eb13527bf55440034534088751eaea4a4767a22c64739",
            "0x0000000000000000000000000000000000000000000000001bc16d674ec80000"
          ],
          "data": "0x",
          "blockHash": "0xb7d6b4116699f2020c24332835195405a3efd560730c12508fb72c3a4995a767",
          "blockNumber": "0x3a61c9",
          "transactionHash": "0x3a9f5440a558c0683f88cdc6c983de6695b39bdea02961109b2122323c305296",
          "transactionIndex": "0x12",
          "logIndex": "0x28",
          "removed": false
        }
      ],
      "logsBloom": "0x00000000000000000000000000000000000000000000000000000200400000000000000000400000000200000000000000000000000000000000000000000000000000000000000000000000000000000000000000000000000000000000001000000000100000000000000000000000000000000000000000000000000000040000000000000000000000000000000002000000004004000000001000400000000000000400000000000000000010000001800000000000000000000000000000020000000800000000000000000000000000000000000000000000000000000000000000000000000000000000000000000000000000000000000000000000",
      "type": "0x2",
      "transactionHash": "0x3a9f5440a558c0683f88cdc6c983de6695b39bdea02961109b2122323c305296",
      "transactionIndex": "0x12",
      "blockHash": "0xb7d6b4116699f2020c24332835195405a3efd560730c12508fb72c3a4995a767",
      "blockNumber": "0x3a61c9",
      "gasUsed": "0x174f7",
      "effectiveGasPrice": "0x35588d",
      "from": "0xb20332fb753496be0c64a3e9b71812101dc42774",
      "to": "0x97b954474c220f58cb99a56d7d9a70368cb4e900",
      "contractAddress": null
    }
  ],
  "libraries": [],
  "pending": [],
  "returns": {},
  "timestamp": 1747081371,
  "chain": 17000,
  "commit": "5c7fd55"
}