{
  "transactions": [
    {
      "hash": "0x0103bf10b827651cd25a902ae2175528716b203465f5c932d7dc9404bdf9a818",
      "transactionType": "CALL",
      "contractName": null,
      "contractAddress": "0x97b954474c220f58cb99a56d7d9a70368cb4e900",
      "function": "setNewMerkleRoot(bytes32)",
      "arguments": [
        "0x81dad989dc4fbf80089c7a88cba937f52416cdb6ba631b17aad335dbc15e758b"
      ],
      "transaction": {
        "from": "0xb20332fb753496be0c64a3e9b71812101dc42774",
        "to": "0x97b954474c220f58cb99a56d7d9a70368cb4e900",
        "gas": "0x18ead",
        "value": "0x0",
        "input": "0x611236a481dad989dc4fbf80089c7a88cba937f52416cdb6ba631b17aad335dbc15e758b",
        "nonce": "0x16",
        "chainId": "0x4268"
      },
      "additionalContracts": [],
      "isFixedGasLimit": false
    }
  ],
  "receipts": [
    {
      "status": "0x1",
      "cumulativeGasUsed": "0xc89c4",
      "logs": [
        {
          "address": "0x97b954474c220f58cb99a56d7d9a70368cb4e900",
          "topics": [
            "0xc34c51f14a1ba51ad7984f0e9ce0ef7a0e18364f76ba670ee057653f719d9a69",
            "0x81dad989dc4fbf80089c7a88cba937f52416cdb6ba631b17aad335dbc15e758b"
          ],
          "data": "0x0000000000000000000000000000000000000000000000000000000068225790",
          "blockHash": "0x2e032f8dfaaa5d5aeff31ea50641304944674dd7993daa720bd1e0a1e1563a46",
          "blockNumber": "0x3a61a2",
          "transactionHash": "0x0103bf10b827651cd25a902ae2175528716b203465f5c932d7dc9404bdf9a818",
          "transactionIndex": "0x9",
          "logIndex": "0xc",
          "removed": false
        }
      ],
      "logsBloom": "0x00000800000000000000000000000000000000000000000000000000001000010000000000000000000200000000000000000000000000000000000008000000400000000000000000000000000000000000000000000000000000000000000000000000000000000000000000000000000000000000000000000000000000000000000000000000000000000000000002000000000000000000000000000000000000000000000000000000000000000000800000000000000000000000000000000000000000000000000000000000000000000000000000000000000000000000000200000000000000000000000000000000000000000000000000000000",
      "type": "0x2",
      "transactionHash": "0x0103bf10b827651cd25a902ae2175528716b203465f5c932d7dc9404bdf9a818",
      "transactionIndex": "0x9",
      "blockHash": "0x2e032f8dfaaa5d5aeff31ea50641304944674dd7993daa720bd1e0a1e1563a46",
      "blockNumber": "0x3a61a2",
      "gasUsed": "0x1109a",
      "effectiveGasPrice": "0x35588c",
      "from": "0xb20332fb753496be0c64a3e9b71812101dc42774",
      "to": "0x97b954474c220f58cb99a56d7d9a70368cb4e900",
      "contractAddress": null
    }
  ],
  "libraries": [],
  "pending": [],
  "returns": {},
  "timestamp": 1747080806,
  "chain": 17000,
  "commit": "5c7fd55"
}